{
  "transactions": [
    {
      "hash": "0x63f3533cec4e1858a7d52a7ad953fd05cfe4501a8eded26402e34db677c60a5b",
      "transactionType": "CALL",
      "contractName": null,
      "contractAddress": "0x9427ee90d696b13aa0196605471c2babdfc7c800",
      "function": "deposit()",
      "arguments": [],
      "transaction": {
        "from": "0x023c6911c69b6c0e70a76c27b23fe1a32b08bf98",
        "to": "0x9427ee90d696b13aa0196605471c2babdfc7c800",
        "gas": "0x14424",
        "value": "0x2386f26fc10000",
        "input": "0xd0e30db0",
        "nonce": "0xb5",
        "chainId": "0xaa36a7"
      },
      "additionalContracts": [],
      "isFixedGasLimit": false
    },
    {
      "hash": "0x37d0b463829e8d997485f49e11d6c7b26bbdda147b1f2050d70bd395f3e4f46a",
      "transactionType": "CALL",
      "contractName": null,
      "contractAddress": "0x10485688ec033089a65eb82f81e8035148aae59f",
      "function": "setWhitelistedSourceChain(uint64,bool)",
      "arguments": [
        "16015286601757825753",
        "true"
      ],
      "transaction": {
        "from": "0x023c6911c69b6c0e70a76c27b23fe1a32b08bf98",
        "to": "0x10485688ec033089a65eb82f81e8035148aae59f",
        "gas": "0x11059",
        "value": "0x0",
        "input": "0x1495807e000000000000000000000000000000000000000000000000de41ba4fc9d91ad90000000000000000000000000000000000000000000000000000000000000001",
        "nonce": "0xb6",
        "chainId": "0xaa36a7"
      },
      "additionalContracts": [],
      "isFixedGasLimit": false
    },
    {
      "hash": "0x8d396c7d88d51a0c9feced2761200e95b1f4b3ae7df5ef232d7c9988efba1bf6",
      "transactionType": "CALL",
      "contractName": null,
      "contractAddress": "0x10485688ec033089a65eb82f81e8035148aae59f",
      "function": "setWhitelistedSender(address,bool)",
      "arguments": [
        "0xBb1f0ebfB0056959e2c7C8D8ee8d8C0231C2fF75",
        "true"
      ],
      "transaction": {
        "from": "0x023c6911c69b6c0e70a76c27b23fe1a32b08bf98",
        "to": "0x10485688ec033089a65eb82f81e8035148aae59f",
        "gas": "0x10272",
        "value": "0x0",
        "input": "0x29923838000000000000000000000000bb1f0ebfb0056959e2c7c8d8ee8d8c0231c2ff750000000000000000000000000000000000000000000000000000000000000001",
        "nonce": "0xb7",
        "chainId": "0xaa36a7"
      },
      "additionalContracts": [],
      "isFixedGasLimit": false
    },
    {
      "hash": "0xb9a5f229abfad678e3fbda61b7efdfdaed92ee238567b3958d95c990b08cdee0",
      "transactionType": "CALL",
      "contractName": null,
      "contractAddress": "0xbb1f0ebfb0056959e2c7c8d8ee8d8c0231c2ff75",
      "function": "setDestinationChain(uint64,address)",
      "arguments": [
        "16015286601757825753",
        "0x10485688ec033089A65Eb82f81E8035148aAE59F"
      ],
      "transaction": {
        "from": "0x023c6911c69b6c0e70a76c27b23fe1a32b08bf98",
        "to": "0xbb1f0ebfb0056959e2c7c8d8ee8d8c0231c2ff75",
        "gas": "0x17a9d",
        "value": "0x0",
        "input": "0x550fa001000000000000000000000000000000000000000000000000de41ba4fc9d91ad900000000000000000000000010485688ec033089a65eb82f81e8035148aae59f",
        "nonce": "0xb8",
        "chainId": "0xaa36a7"
      },
      "additionalContracts": [],
      "isFixedGasLimit": false
    }
  ],
  "receipts": [
    {
      "status": "0x1",
      "cumulativeGasUsed": "0x15268aa",
      "logs": [
        {
          "address": "0x5ff137d4b0fdcd49dca30c7cf57e578a026d2789",
          "topics": [
            "0x2da466a7b24304f47e87fa2e1e5a81b9831ce54fec19055ce277ca2f39ba42c4",
            "0x0000000000000000000000009427ee90d696b13aa0196605471c2babdfc7c800"
          ],
          "data": "0x000000000000000000000000000000000000000000000000002386f26fc10000",
          "blockHash": "0x787b6166e6c9ee9629d8dfcab48b60d3f23b6ba430268cd6244e5673b21d9df7",
          "blockNumber": "0x9d6554",
          "blockTimestamp": "0x699b4984",
          "transactionHash": "0x63f3533cec4e1858a7d52a7ad953fd05cfe4501a8eded26402e34db677c60a5b",
          "transactionIndex": "0x6d",
          "logIndex": "0x105",
          "removed": false
        },
        {
          "address": "0x9427ee90d696b13aa0196605471c2babdfc7c800",
          "topics": [
            "0x1dbbf474736d6415d6a265fabee708fe6e988f6fd0c9d870ded36cab380898dd",
            "0x000000000000000000000000023c6911c69b6c0e70a76c27b23fe1a32b08bf98"
          ],
          "data": "0x000000000000000000000000000000000000000000000000002386f26fc10000",
          "blockHash": "0x787b6166e6c9ee9629d8dfcab48b60d3f23b6ba430268cd6244e5673b21d9df7",
          "blockNumber": "0x9d6554",
          "blockTimestamp": "0x699b4984",
          "transactionHash": "0x63f3533cec4e1858a7d52a7ad953fd05cfe4501a8eded26402e34db677c60a5b",
          "transactionIndex": "0x6d",
          "logIndex": "0x106",
          "removed": false
        }
      ],
      "logsBloom": "0x00000000000000000000000000000000000000000000000000000000000000000000000200000000000200000000000000100000010000040000000000000000000000008800000000000000000000000000000000000000000000000040200000000000080000000000000000000000000000000000000200000000000200000000000000000000000000000000000000080000000000000000000000000000000000000000000000000000000000000000000000000000000000000800800000000000000000000000000000000000000000000000000000010000000000000040000000000000000000000000000000000000000000000200000000000000",
      "type": "0x0",
      "transactionHash": "0x63f3533cec4e1858a7d52a7ad953fd05cfe4501a8eded26402e34db677c60a5b",
      "transactionIndex": "0x6d",
      "blockHash": "0x787b6166e6c9ee9629d8dfcab48b60d3f23b6ba430268cd6244e5673b21d9df7",
      "blockNumber": "0x9d6554",
      "gasUsed": "0xdda3",
      "effectiveGasPrice": "0xf424c",
      "from": "0x023c6911c69b6c0e70a76c27b23fe1a32b08bf98",
      "to": "0x9427ee90d696b13aa0196605471c2babdfc7c800",
      "contractAddress": null
    },
    {
      "status": "0x1",
      "cumulativeGasUsed": "0x15322e3",
      "logs": [
        {
          "address": "0x10485688ec033089a65eb82f81e8035148aae59f",
          "topics": [
            "0xbca46419bcee1f8e0437d2ae1c383a451d5c5b598ece5ef1e0ffe515ff603239",
            "0x000000000000000000000000000000000000000000000000de41ba4fc9d91ad9"
          ],
          "data": "0x0000000000000000000000000000000000000000000000000000000000000001",
          "blockHash": "0x787b6166e6c9ee9629d8dfcab48b60d3f23b6ba430268cd6244e5673b21d9df7",
          "blockNumber": "0x9d6554",
          "blockTimestamp": "0x699b4984",
          "transactionHash": "0x37d0b463829e8d997485f49e11d6c7b26bbdda147b1f2050d70bd395f3e4f46a",
          "transactionIndex": "0x6e",
          "logIndex": "0x107",
          "removed": false
        }
      ],
      "logsBloom": "0x00000000000000000000000000000000000000000000000004000000000000000000000000004000000000000000000000000000000000000000000000000000000000000000000000000000000000000000000000000000000000000000000001000000000000000000000000010000000000000000000000000000000200000000000000000000000000000000000001000020000000000000000000000000002000000000000000000000000000000000000000000000000000000000000000000000000000000000000000000000000000000000400000000000000000000000000000000000000000000000000000000000000000000000000000000000",
      "type": "0x0",
      "transactionHash": "0x37d0b463829e8d997485f49e11d6c7b26bbdda147b1f2050d70bd395f3e4f46a",
      "transactionIndex": "0x6e",
      "blockHash": "0x787b6166e6c9ee9629d8dfcab48b60d3f23b6ba430268cd6244e5673b21d9df7",
      "blockNumber": "0x9d6554",
      "gasUsed": "0xba39",
      "effectiveGasPrice": "0xf424c",
      "from": "0x023c6911c69b6c0e70a76c27b23fe1a32b08bf98",
      "to": "0x10485688ec033089a65eb82f81e8035148aae59f",
      "contractAddress": null
    },
    {
      "status": "0x1",
      "cumulativeGasUsed": "0x153de00",
      "logs": [
        {
          "address": "0x10485688ec033089a65eb82f81e8035148aae59f",
          "topics": [
            "0x7cc8eedb33d0513aac63d861ea275788d3526752cda024d59cfad9d9174190ca",
            "0x000000000000000000000000bb1f0ebfb0056959e2c7c8d8ee8d8c0231c2ff75"
          ],
          "data": "0x0000000000000000000000000000000000000000000000000000000000000001",
          "blockHash": "0x787b6166e6c9ee9629d8dfcab48b60d3f23b6ba430268cd6244e5673b21d9df7",
          "blockNumber": "0x9d6554",
          "blockTimestamp": "0x699b4984",
          "transactionHash": "0x8d396c7d88d51a0c9feced2761200e95b1f4b3ae7df5ef232d7c9988efba1bf6",
          "transactionIndex": "0x6f",
          "logIndex": "0x108",
          "removed": false
        }
      ],
      "logsBloom": "0x00000000000000000000000000000000000000000000000000000040000000000000000000000000000000000000000000000000400000000000000000000000000400000000000000000000000000000000000000000000000000000000000001000000000000000000000000000020000000000000000000000000000200000000000000000000000000000000000000000000000000400000000000000000000000000000000000000000000000000000400000000000000000000000000000000000000000000000000000000000000000000000400000000000000000000000000000000000000000000000000000000000000000000000000000000000",
      "type": "0x0",
      "transactionHash": "0x8d396c7d88d51a0c9feced2761200e95b1f4b3ae7df5ef232d7c9988efba1bf6",
      "transactionIndex": "0x6f",
      "blockHash": "0x787b6166e6c9ee9629d8dfcab48b60d3f23b6ba430268cd6244e5673b21d9df7",
      "blockNumber": "0x9d6554",
      "gasUsed": "0xbb1d",
      "effectiveGasPrice": "0xf424c",
      "from": "0x023c6911c69b6c0e70a76c27b23fe1a32b08bf98",
      "to": "0x10485688ec033089a65eb82f81e8035148aae59f",
      "contractAddress": null
    },
    {
      "status": "0x1",
      "cumulativeGasUsed": "0x154f01d",
      "logs": [
        {
          "address": "0xbb1f0ebfb0056959e2c7c8d8ee8d8c0231c2ff75",
          "topics": [
            "0x5eae396f2b7b16171a6ee2dfd5c22e1de648d50975e4aae18d358f9dca2db766",
            "0x000000000000000000000000000000000000000000000000de41ba4fc9d91ad9"
          ],
          "data": "0x00000000000000000000000010485688ec033089a65eb82f81e8035148aae59f",
          "blockHash": "0x787b6166e6c9ee9629d8dfcab48b60d3f23b6ba430268cd6244e5673b21d9df7",
          "blockNumber": "0x9d6554",
          "blockTimestamp": "0x699b4984",
          "transactionHash": "0xb9a5f229abfad678e3fbda61b7efdfdaed92ee238567b3958d95c990b08cdee0",
          "transactionIndex": "0x70",
          "logIndex": "0x109",
          "removed": false
        }
      ],
      "logsBloom": "0x00000000000000000000000000000000000000000000000000000000000000000000000000004000000000000000000000000000000000000000000000000000000000000000000000000000000000000000000000000000000000000000000000000000060040000000000000010000000000000000000000000000000000000000000000000000000000000000000000000020008000000000000000000000000000000000000000000000000000000100000000000000000000000000000000000000000000000000000000000000000000000000000000001000000000000000000000000000000000000000000000000000000000000000000000000000",
      "type": "0x0",
      "transactionHash": "0xb9a5f229abfad678e3fbda61b7efdfdaed92ee238567b3958d95c990b08cdee0",
      "transactionIndex": "0x70",
      "blockHash": "0x787b6166e6c9ee9629d8dfcab48b60d3f23b6ba430268cd6244e5673b21d9df7",
      "blockNumber": "0x9d6554",
      "gasUsed": "0x1121d",
      "effectiveGasPrice": "0xf424c",
      "from": "0x023c6911c69b6c0e70a76c27b23fe1a32b08bf98",
      "to": "0xbb1f0ebfb0056959e2c7c8d8ee8d8c0231c2ff75",
      "contractAddress": null
    }
  ],
  "libraries": [],
  "pending": [],
  "returns": {},
  "timestamp": 1771784581039,
  "chain": 11155111,
  "commit": null
}