{
  "transactions": [
    {
      "hash": "0x79d27338413d169387de17dce087980975b0d142dc04fc5c8ff974a67bc3b0a1",
      "transactionType": "CALL",
      "contractName": null,
      "contractAddress": "0x766690093fc5c3d4ba68e9f156705b9e2c4956be",
      "function": "setWhitelistedSourceChain(uint64,bool)",
      "arguments": [
        "16015286601757825753",
        "true"
      ],
      "transaction": {
        "from": "0x023c6911c69b6c0e70a76c27b23fe1a32b08bf98",
        "to": "0x766690093fc5c3d4ba68e9f156705b9e2c4956be",
        "gas": "0x95d8",
        "value": "0x0",
        "input": "0x1495807e000000000000000000000000000000000000000000000000de41ba4fc9d91ad90000000000000000000000000000000000000000000000000000000000000001",
        "nonce": "0x13d",
        "chainId": "0xaa36a7"
      },
      "additionalContracts": [],
      "isFixedGasLimit": false
    },
    {
      "hash": "0x1f9e152d6000f90fdbf5b2b64a3ddfdf5865f3aa899c0c77b9734491fe732299",
      "transactionType": "CALL",
      "contractName": null,
      "contractAddress": "0x766690093fc5c3d4ba68e9f156705b9e2c4956be",
      "function": "setWhitelistedSender(address,bool)",
      "arguments": [
        "0x473cdD880cbC24C4c50dDF04dEd4F5b04c8D378f",
        "true"
      ],
      "transaction": {
        "from": "0x023c6911c69b6c0e70a76c27b23fe1a32b08bf98",
        "to": "0x766690093fc5c3d4ba68e9f156705b9e2c4956be",
        "gas": "0x9ff7",
        "value": "0x0",
        "input": "0x29923838000000000000000000000000473cdd880cbc24c4c50ddf04ded4f5b04c8d378f0000000000000000000000000000000000000000000000000000000000000001",
        "nonce": "0x13e",
        "chainId": "0xaa36a7"
      },
      "additionalContracts": [],
      "isFixedGasLimit": false
    },
    {
      "hash": "0x5302498ae4aee3ce5ef8bc4f435ec8c0390205f3c78b735593d80aeef4fe7ff6",
      "transactionType": "CALL",
      "contractName": null,
      "contractAddress": "0x473cdd880cbc24c4c50ddf04ded4f5b04c8d378f",
      "function": "setDestinationChain(uint64,address)",
      "arguments": [
        "16015286601757825753",
        "0x766690093Fc5C3d4Ba68E9f156705B9E2c4956Be"
      ],
      "transaction": {
        "from": "0x023c6911c69b6c0e70a76c27b23fe1a32b08bf98",
        "to": "0x473cdd880cbc24c4c50ddf04ded4f5b04c8d378f",
        "gas": "0xa3e0",
        "value": "0x0",
        "input": "0x550fa001000000000000000000000000000000000000000000000000de41ba4fc9d91ad9000000000000000000000000766690093fc5c3d4ba68e9f156705b9e2c4956be",
        "nonce": "0x13f",
        "chainId": "0xaa36a7"
      },
      "additionalContracts": [],
      "isFixedGasLimit": false
    }
  ],
  "receipts": [
    {
      "status": "0x1",
      "cumulativeGasUsed": "0x11d17b0",
      "logs": [
        {
          "address": "0x766690093fc5c3d4ba68e9f156705b9e2c4956be",
          "topics": [
            "0xbca46419bcee1f8e0437d2ae1c383a451d5c5b598ece5ef1e0ffe515ff603239",
            "0x000000000000000000000000000000000000000000000000de41ba4fc9d91ad9"
          ],
          "data": "0x0000000000000000000000000000000000000000000000000000000000000001",
          "blockHash": "0xdf89afaa2d7e41a41cfc055235b69deb9acaf41acdb58a52b4a5b2623e833e4d",
          "blockNumber": "0x9dc12f",
          "blockTimestamp": "0x699fdcb0",
          "transactionHash": "0x79d27338413d169387de17dce087980975b0d142dc04fc5c8ff974a67bc3b0a1",
          "transactionIndex": "0x66",
          "logIndex": "0x107",
          "removed": false
        }
      ],
      "logsBloom": "0x00000000000000000000000800000000000000000000000004000000000000000000000000004000000000000000000000000000000000000000000000000000000000000000000000000000000000000000000000000000000000000000100000000000000000000000000000010000000000000000000000000000000000000001000000000000000000000000000001000020000000000000000000000000002000000000000000000000000000000000000000000000000000000000000000000000000000000000000000000000000000000000000000000000000000000000000000000000000000000000000000000000000000000000000000000000",
      "type": "0x2",
      "transactionHash": "0x79d27338413d169387de17dce087980975b0d142dc04fc5c8ff974a67bc3b0a1",
      "transactionIndex": "0x66",
      "blockHash": "0xdf89afaa2d7e41a41cfc055235b69deb9acaf41acdb58a52b4a5b2623e833e4d",
      "blockNumber": "0x9dc12f",
      "gasUsed": "0x6c7d",
      "effectiveGasPrice": "0xf4257",
      "from": "0x023c6911c69b6c0e70a76c27b23fe1a32b08bf98",
      "to": "0x766690093fc5c3d4ba68e9f156705b9e2c4956be",
      "contractAddress": null
    },
    {
      "status": "0x1",
      "cumulativeGasUsed": "0x11d8511",
      "logs": [
        {
          "address": "0x766690093fc5c3d4ba68e9f156705b9e2c4956be",
          "topics": [
            "0x7cc8eedb33d0513aac63d861ea275788d3526752cda024d59cfad9d9174190ca",
            "0x000000000000000000000000473cdd880cbc24c4c50ddf04ded4f5b04c8d378f"
          ],
          "data": "0x0000000000000000000000000000000000000000000000000000000000000001",
          "blockHash": "0xdf89afaa2d7e41a41cfc055235b69deb9acaf41acdb58a52b4a5b2623e833e4d",
          "blockNumber": "0x9dc12f",
          "blockTimestamp": "0x699fdcb0",
          "transactionHash": "0x1f9e152d6000f90fdbf5b2b64a3ddfdf5865f3aa899c0c77b9734491fe732299",
          "transactionIndex": "0x67",
          "logIndex": "0x108",
          "removed": false
        }
      ],
      "logsBloom": "0x10000000000000000000000800000000000000000000000000000000000000000000000000000000000000000000000000000000000000000000000000000000000400000000000000000000000000000000000000000000000000000000100000000000000000000000000000000020000000000000000000000000800000000001000000000000000000000001000000000000000000400000000000000000000000000000000000000000000000000000000000000000000000000000000000000000000000000000000000000000000000000000000000000000000000000000000000000000000000000000000000000000000000000000000000000000",
      "type": "0x2",
      "transactionHash": "0x1f9e152d6000f90fdbf5b2b64a3ddfdf5865f3aa899c0c77b9734491fe732299",
      "transactionIndex": "0x67",
      "blockHash": "0xdf89afaa2d7e41a41cfc055235b69deb9acaf41acdb58a52b4a5b2623e833e4d",
      "blockNumber": "0x9dc12f",
      "gasUsed": "0x6d61",
      "effectiveGasPrice": "0xf4257",
      "from": "0x023c6911c69b6c0e70a76c27b23fe1a32b08bf98",
      "to": "0x766690093fc5c3d4ba68e9f156705b9e2c4956be",
      "contractAddress": null
    },
    {
      "status": "0x1",
      "cumulativeGasUsed": "0x11dfbb6",
      "logs": [
        {
          "address": "0x473cdd880cbc24c4c50ddf04ded4f5b04c8d378f",
          "topics": [
            "0x5eae396f2b7b16171a6ee2dfd5c22e1de648d50975e4aae18d358f9dca2db766",
            "0x000000000000000000000000000000000000000000000000de41ba4fc9d91ad9"
          ],
          "data": "0x000000000000000000000000766690093fc5c3d4ba68e9f156705b9e2c4956be",
          "blockHash": "0xdf89afaa2d7e41a41cfc055235b69deb9acaf41acdb58a52b4a5b2623e833e4d",
          "blockNumber": "0x9dc12f",
          "blockTimestamp": "0x699fdcb0",
          "transactionHash": "0x5302498ae4aee3ce5ef8bc4f435ec8c0390205f3c78b735593d80aeef4fe7ff6",
          "transactionIndex": "0x68",
          "logIndex": "0x109",
          "removed": false
        }
      ],
      "logsBloom": "0x00000000000100000000000000000000000000000000000000000000000000000000000000004000000000000000000000000000000000000000000000000000000000000000000000000000000000000000000000000100000000000000000000000000080040000000000000010000000000000000000000000000000000000000000000000000000000000000000000000020000000000000000000000000000000000000000000000000000000000100000000000000000000000000000000000000000000000000000000000000000000000000000000001000000000000000000000000000000000000000000000000000000000000000000000000000",
      "type": "0x2",
      "transactionHash": "0x5302498ae4aee3ce5ef8bc4f435ec8c0390205f3c78b735593d80aeef4fe7ff6",
      "transactionIndex": "0x68",
      "blockHash": "0xdf89afaa2d7e41a41cfc055235b69deb9acaf41acdb58a52b4a5b2623e833e4d",
      "blockNumber": "0x9dc12f",
      "gasUsed": "0x76a5",
      "effectiveGasPrice": "0xf4257",
      "from": "0x023c6911c69b6c0e70a76c27b23fe1a32b08bf98",
      "to": "0x473cdd880cbc24c4c50ddf04ded4f5b04c8d378f",
      "contractAddress": null
    }
  ],
  "libraries": [],
  "pending": [],
  "returns": {},
  "timestamp": 1772084400528,
  "chain": 11155111,
  "commit": null
}