{
  "transactions": [
    {
      "hash": "0x1747d9de3aac92d43bb0a7657e307eaf93580536fa3d227113d5bfdb603a6a7b",
      "transactionType": "CALL",
      "contractName": null,
      "contractAddress": "0x766690093fc5c3d4ba68e9f156705b9e2c4956be",
      "function": "setWhitelistedSourceChain(uint64,bool)",
      "arguments": [
        "16015286601757825753",
        "true"
      ],
      "transaction": {
        "from": "0x023c6911c69b6c0e70a76c27b23fe1a32b08bf98",
        "to": "0x766690093fc5c3d4ba68e9f156705b9e2c4956be",
        "gas": "0x11059",
        "value": "0x0",
        "input": "0x1495807e000000000000000000000000000000000000000000000000de41ba4fc9d91ad90000000000000000000000000000000000000000000000000000000000000001",
        "nonce": "0x13a",
        "chainId": "0xaa36a7"
      },
      "additionalContracts": [],
      "isFixedGasLimit": false
    },
    {
      "hash": "0x2a96a492464f913237bb0709e61f698f036316ce6c573cd0c58fcdef28b8a1d3",
      "transactionType": "CALL",
      "contractName": null,
      "contractAddress": "0x766690093fc5c3d4ba68e9f156705b9e2c4956be",
      "function": "setWhitelistedSender(address,bool)",
      "arguments": [
        "0x473cdD880cbC24C4c50dDF04dEd4F5b04c8D378f",
        "true"
      ],
      "transaction": {
        "from": "0x023c6911c69b6c0e70a76c27b23fe1a32b08bf98",
        "to": "0x766690093fc5c3d4ba68e9f156705b9e2c4956be",
        "gas": "0x10272",
        "value": "0x0",
        "input": "0x29923838000000000000000000000000473cdd880cbc24c4c50ddf04ded4f5b04c8d378f0000000000000000000000000000000000000000000000000000000000000001",
        "nonce": "0x13b",
        "chainId": "0xaa36a7"
      },
      "additionalContracts": [],
      "isFixedGasLimit": false
    },
    {
      "hash": "0x4d16aaa87a3905eec010f963aa5f60d93a5ac372154b87f33650f624b8223dd6",
      "transactionType": "CALL",
      "contractName": null,
      "contractAddress": "0x473cdd880cbc24c4c50ddf04ded4f5b04c8d378f",
      "function": "setDestinationChain(uint64,address)",
      "arguments": [
        "16015286601757825753",
        "0x766690093Fc5C3d4Ba68E9f156705B9E2c4956Be"
      ],
      "transaction": {
        "from": "0x023c6911c69b6c0e70a76c27b23fe1a32b08bf98",
        "to": "0x473cdd880cbc24c4c50ddf04ded4f5b04c8d378f",
        "gas": "0x17a9d",
        "value": "0x0",
        "input": "0x550fa001000000000000000000000000000000000000000000000000de41ba4fc9d91ad9000000000000000000000000766690093fc5c3d4ba68e9f156705b9e2c4956be",
        "nonce": "0x13c",
        "chainId": "0xaa36a7"
      },
      "additionalContracts": [],
      "isFixedGasLimit": false
    }
  ],
  "receipts": [
    {
      "status": "0x1",
      "cumulativeGasUsed": "0x107ee5d",
      "logs": [
        {
          "address": "0x766690093fc5c3d4ba68e9f156705b9e2c4956be",
          "topics": [
            "0xbca46419bcee1f8e0437d2ae1c383a451d5c5b598ece5ef1e0ffe515ff603239",
            "0x000000000000000000000000000000000000000000000000de41ba4fc9d91ad9"
          ],
          "data": "0x0000000000000000000000000000000000000000000000000000000000000001",
          "blockHash": "0x2d8e731681ee6b98969f40bf26ddfe2327d1275cae049855c8f576f53ffe4590",
          "blockNumber": "0x9dc127",
          "blockTimestamp": "0x699fdc50",
          "transactionHash": "0x1747d9de3aac92d43bb0a7657e307eaf93580536fa3d227113d5bfdb603a6a7b",
          "transactionIndex": "0x76",
          "logIndex": "0xf7",
          "removed": false
        }
      ],
      "logsBloom": "0x00000000000000000000000800000000000000000000000004000000000000000000000000004000000000000000000000000000000000000000000000000000000000000000000000000000000000000000000000000000000000000000100000000000000000000000000000010000000000000000000000000000000000000001000000000000000000000000000001000020000000000000000000000000002000000000000000000000000000000000000000000000000000000000000000000000000000000000000000000000000000000000000000000000000000000000000000000000000000000000000000000000000000000000000000000000",
      "type": "0x2",
      "transactionHash": "0x1747d9de3aac92d43bb0a7657e307eaf93580536fa3d227113d5bfdb603a6a7b",
      "transactionIndex": "0x76",
      "blockHash": "0x2d8e731681ee6b98969f40bf26ddfe2327d1275cae049855c8f576f53ffe4590",
      "blockNumber": "0x9dc127",
      "gasUsed": "0xba39",
      "effectiveGasPrice": "0xf425b",
      "from": "0x023c6911c69b6c0e70a76c27b23fe1a32b08bf98",
      "to": "0x766690093fc5c3d4ba68e9f156705b9e2c4956be",
      "contractAddress": null
    },
    {
      "status": "0x1",
      "cumulativeGasUsed": "0x108a97a",
      "logs": [
        {
          "address": "0x766690093fc5c3d4ba68e9f156705b9e2c4956be",
          "topics": [
            "0x7cc8eedb33d0513aac63d861ea275788d3526752cda024d59cfad9d9174190ca",
            "0x000000000000000000000000473cdd880cbc24c4c50ddf04ded4f5b04c8d378f"
          ],
          "data": "0x0000000000000000000000000000000000000000000000000000000000000001",
          "blockHash": "0x2d8e731681ee6b98969f40bf26ddfe2327d1275cae049855c8f576f53ffe4590",
          "blockNumber": "0x9dc127",
          "blockTimestamp": "0x699fdc50",
          "transactionHash": "0x2a96a492464f913237bb0709e61f698f036316ce6c573cd0c58fcdef28b8a1d3",
          "transactionIndex": "0x77",
          "logIndex": "0xf8",
          "removed": false
        }
      ],
      "logsBloom": "0x10000000000000000000000800000000000000000000000000000000000000000000000000000000000000000000000000000000000000000000000000000000000400000000000000000000000000000000000000000000000000000000100000000000000000000000000000000020000000000000000000000000800000000001000000000000000000000001000000000000000000400000000000000000000000000000000000000000000000000000000000000000000000000000000000000000000000000000000000000000000000000000000000000000000000000000000000000000000000000000000000000000000000000000000000000000",
      "type": "0x2",
      "transactionHash": "0x2a96a492464f913237bb0709e61f698f036316ce6c573cd0c58fcdef28b8a1d3",
      "transactionIndex": "0x77",
      "blockHash": "0x2d8e731681ee6b98969f40bf26ddfe2327d1275cae049855c8f576f53ffe4590",
      "blockNumber": "0x9dc127",
      "gasUsed": "0xbb1d",
      "effectiveGasPrice": "0xf425b",
      "from": "0x023c6911c69b6c0e70a76c27b23fe1a32b08bf98",
      "to": "0x766690093fc5c3d4ba68e9f156705b9e2c4956be",
      "contractAddress": null
    },
    {
      "status": "0x1",
      "cumulativeGasUsed": "0x10a2717",
      "logs": [
        {
          "address": "0x473cdd880cbc24c4c50ddf04ded4f5b04c8d378f",
          "topics": [
            "0x5eae396f2b7b16171a6ee2dfd5c22e1de648d50975e4aae18d358f9dca2db766",
            "0x000000000000000000000000000000000000000000000000de41ba4fc9d91ad9"
          ],
          "data": "0x000000000000000000000000766690093fc5c3d4ba68e9f156705b9e2c4956be",
          "blockHash": "0x2d8e731681ee6b98969f40bf26ddfe2327d1275cae049855c8f576f53ffe4590",
          "blockNumber": "0x9dc127",
          "blockTimestamp": "0x699fdc50",
          "transactionHash": "0x4d16aaa87a3905eec010f963aa5f60d93a5ac372154b87f33650f624b8223dd6",
          "transactionIndex": "0x79",
          "logIndex": "0xfa",
          "removed": false
        }
      ],
      "logsBloom": "0x00000000000100000000000000000000000000000000000000000000000000000000000000004000000000000000000000000000000000000000000000000000000000000000000000000000000000000000000000000100000000000000000000000000080040000000000000010000000000000000000000000000000000000000000000000000000000000000000000000020000000000000000000000000000000000000000000000000000000000100000000000000000000000000000000000000000000000000000000000000000000000000000000001000000000000000000000000000000000000000000000000000000000000000000000000000",
      "type": "0x2",
      "transactionHash": "0x4d16aaa87a3905eec010f963aa5f60d93a5ac372154b87f33650f624b8223dd6",
      "transactionIndex": "0x79",
      "blockHash": "0x2d8e731681ee6b98969f40bf26ddfe2327d1275cae049855c8f576f53ffe4590",
      "blockNumber": "0x9dc127",
      "gasUsed": "0x1121d",
      "effectiveGasPrice": "0xf425b",
      "from": "0x023c6911c69b6c0e70a76c27b23fe1a32b08bf98",
      "to": "0x473cdd880cbc24c4c50ddf04ded4f5b04c8d378f",
      "contractAddress": null
    }
  ],
  "libraries": [],
  "pending": [],
  "returns": {},
  "timestamp": 1772084304732,
  "chain": 11155111,
  "commit": null
}