{
  "transactions": [
    {
      "hash": "0x77dedb19e70750281325f612474658b9daa941f1695d44032ebf43d7a2659c5b",
      "transactionType": "CALL",
      "contractName": null,
      "contractAddress": "0x9093f9ca67bfb684ea981bd37c08b966e1c29d14",
      "function": "setWhitelistedSourceChain(uint64,bool)",
      "arguments": [
        "16015286601757825753",
        "true"
      ],
      "transaction": {
        "from": "0x023c6911c69b6c0e70a76c27b23fe1a32b08bf98",
        "to": "0x9093f9ca67bfb684ea981bd37c08b966e1c29d14",
        "gas": "0x11059",
        "value": "0x0",
        "input": "0x1495807e000000000000000000000000000000000000000000000000de41ba4fc9d91ad90000000000000000000000000000000000000000000000000000000000000001",
        "nonce": "0xca",
        "chainId": "0xaa36a7"
      },
      "additionalContracts": [],
      "isFixedGasLimit": false
    },
    {
      "hash": "0xcf9ee82b94beaca173727e66f10994d62c5009a583b478f682e5aea0e1d5f525",
      "transactionType": "CALL",
      "contractName": null,
      "contractAddress": "0x9093f9ca67bfb684ea981bd37c08b966e1c29d14",
      "function": "setWhitelistedSender(address,bool)",
      "arguments": [
        "0x91395566A217af232b9B8628157c48A1987324Ab",
        "true"
      ],
      "transaction": {
        "from": "0x023c6911c69b6c0e70a76c27b23fe1a32b08bf98",
        "to": "0x9093f9ca67bfb684ea981bd37c08b966e1c29d14",
        "gas": "0x10272",
        "value": "0x0",
        "input": "0x2992383800000000000000000000000091395566a217af232b9b8628157c48a1987324ab0000000000000000000000000000000000000000000000000000000000000001",
        "nonce": "0xcb",
        "chainId": "0xaa36a7"
      },
      "additionalContracts": [],
      "isFixedGasLimit": false
    },
    {
      "hash": "0x1b44f084f7784f9fdd84acdea53ea4dfe6c790712cbc312e2c558806297eb8fa",
      "transactionType": "CALL",
      "contractName": null,
      "contractAddress": "0x91395566a217af232b9b8628157c48a1987324ab",
      "function": "setDestinationChain(uint64,address)",
      "arguments": [
        "16015286601757825753",
        "0x9093F9Ca67bfb684Ea981bd37C08b966e1C29d14"
      ],
      "transaction": {
        "from": "0x023c6911c69b6c0e70a76c27b23fe1a32b08bf98",
        "to": "0x91395566a217af232b9b8628157c48a1987324ab",
        "gas": "0x17a9d",
        "value": "0x0",
        "input": "0x550fa001000000000000000000000000000000000000000000000000de41ba4fc9d91ad90000000000000000000000009093f9ca67bfb684ea981bd37c08b966e1c29d14",
        "nonce": "0xcc",
        "chainId": "0xaa36a7"
      },
      "additionalContracts": [],
      "isFixedGasLimit": false
    }
  ],
  "receipts": [
    {
      "status": "0x1",
      "cumulativeGasUsed": "0x57e442",
      "logs": [
        {
          "address": "0x9093f9ca67bfb684ea981bd37c08b966e1c29d14",
          "topics": [
            "0xbca46419bcee1f8e0437d2ae1c383a451d5c5b598ece5ef1e0ffe515ff603239",
            "0x000000000000000000000000000000000000000000000000de41ba4fc9d91ad9"
          ],
          "data": "0x0000000000000000000000000000000000000000000000000000000000000001",
          "blockHash": "0xfc886d60e480cc1c4d54f440fd6d3437d6bbab266a788204a4123b45703fd163",
          "blockNumber": "0x9d7654",
          "blockTimestamp": "0x699c1d94",
          "transactionHash": "0x77dedb19e70750281325f612474658b9daa941f1695d44032ebf43d7a2659c5b",
          "transactionIndex": "0x47",
          "logIndex": "0x64",
          "removed": false
        }
      ],
      "logsBloom": "0x00000000000000000000000004000000000000000000000004000000000000000000000000004000000000000000000000000000000000000000000000080000000000000000000000000000000000000000000000000000000000000000000000000000000000000000000000010000000000000000000000000000000000000000000000000000000000000000000001000020000000000000000000000000002000000000000000000000000000000000000000000000000000000000000000000000000000000000000000000000000000000000000000000000000000000000000000000000000000000000000000000000000000000000400000000000",
      "type": "0x2",
      "transactionHash": "0x77dedb19e70750281325f612474658b9daa941f1695d44032ebf43d7a2659c5b",
      "transactionIndex": "0x47",
      "blockHash": "0xfc886d60e480cc1c4d54f440fd6d3437d6bbab266a788204a4123b45703fd163",
      "blockNumber": "0x9d7654",
      "gasUsed": "0xba39",
      "effectiveGasPrice": "0xf476e",
      "from": "0x023c6911c69b6c0e70a76c27b23fe1a32b08bf98",
      "to": "0x9093f9ca67bfb684ea981bd37c08b966e1c29d14",
      "contractAddress": null
    },
    {
      "status": "0x1",
      "cumulativeGasUsed": "0x589f5f",
      "logs": [
        {
          "address": "0x9093f9ca67bfb684ea981bd37c08b966e1c29d14",
          "topics": [
            "0x7cc8eedb33d0513aac63d861ea275788d3526752cda024d59cfad9d9174190ca",
            "0x00000000000000000000000091395566a217af232b9b8628157c48a1987324ab"
          ],
          "data": "0x0000000000000000000000000000000000000000000000000000000000000001",
          "blockHash": "0xfc886d60e480cc1c4d54f440fd6d3437d6bbab266a788204a4123b45703fd163",
          "blockNumber": "0x9d7654",
          "blockTimestamp": "0x699c1d94",
          "transactionHash": "0xcf9ee82b94beaca173727e66f10994d62c5009a583b478f682e5aea0e1d5f525",
          "transactionIndex": "0x48",
          "logIndex": "0x65",
          "removed": false
        }
      ],
      "logsBloom": "0x00000000000000000000000004000000000000000000000000000000000000000000000000000000000000000000000000000000000000000000000000080000000400000000000000000000000000000000000000000000000400000000000000000000000000000000000000000020000000000000000000000000000000000000000000000000000000000000000000000000000000400000000000000000000000000000000000000000000000000000000000000000000000000000000000000000000000000000000000000000000000000000000000000000000000000000000000000000100000000000000000000000000000000800400000000000",
      "type": "0x2",
      "transactionHash": "0xcf9ee82b94beaca173727e66f10994d62c5009a583b478f682e5aea0e1d5f525",
      "transactionIndex": "0x48",
      "blockHash": "0xfc886d60e480cc1c4d54f440fd6d3437d6bbab266a788204a4123b45703fd163",
      "blockNumber": "0x9d7654",
      "gasUsed": "0xbb1d",
      "effectiveGasPrice": "0xf476e",
      "from": "0x023c6911c69b6c0e70a76c27b23fe1a32b08bf98",
      "to": "0x9093f9ca67bfb684ea981bd37c08b966e1c29d14",
      "contractAddress": null
    },
    {
      "status": "0x1",
      "cumulativeGasUsed": "0x59b17c",
      "logs": [
        {
          "address": "0x91395566a217af232b9b8628157c48a1987324ab",
          "topics": [
            "0x5eae396f2b7b16171a6ee2dfd5c22e1de648d50975e4aae18d358f9dca2db766",
            "0x000000000000000000000000000000000000000000000000de41ba4fc9d91ad9"
          ],
          "data": "0x0000000000000000000000009093f9ca67bfb684ea981bd37c08b966e1c29d14",
          "blockHash": "0xfc886d60e480cc1c4d54f440fd6d3437d6bbab266a788204a4123b45703fd163",
          "blockNumber": "0x9d7654",
          "blockTimestamp": "0x699c1d94",
          "transactionHash": "0x1b44f084f7784f9fdd84acdea53ea4dfe6c790712cbc312e2c558806297eb8fa",
          "transactionIndex": "0x49",
          "logIndex": "0x66",
          "removed": false
        }
      ],
      "logsBloom": "0x00000000000000000000000000000000000800010000000000000000000000000000000000004000000000000000000000000000000000000000000000000000000000000000000000000000000000000000000000000000000000000000000000000000000040000000000000010000000000000000000000000000000000000000000000000000000000000000000000000020000000000000000000000000000000000000000000000000000000000100000000000000000000000000000000000000000000000000000000000000000000000000000000001000000000000000000000000000000000000000000000000001000000000000000000000000",
      "type": "0x2",
      "transactionHash": "0x1b44f084f7784f9fdd84acdea53ea4dfe6c790712cbc312e2c558806297eb8fa",
      "transactionIndex": "0x49",
      "blockHash": "0xfc886d60e480cc1c4d54f440fd6d3437d6bbab266a788204a4123b45703fd163",
      "blockNumber": "0x9d7654",
      "gasUsed": "0x1121d",
      "effectiveGasPrice": "0xf476e",
      "from": "0x023c6911c69b6c0e70a76c27b23fe1a32b08bf98",
      "to": "0x91395566a217af232b9b8628157c48a1987324ab",
      "contractAddress": null
    }
  ],
  "libraries": [],
  "pending": [],
  "returns": {},
  "timestamp": 1771838866982,
  "chain": 11155111,
  "commit": null
}